{
  "contractName": "Exchange",
  "abi": [
    {
      "inputs": [
        {
          "internalType": "contract StarCoin",
          "name": "_starcoin",
          "type": "address"
        }
      ],
      "stateMutability": "nonpayable",
      "type": "constructor"
    },
    {
      "inputs": [],
      "name": "rate",
      "outputs": [
        {
          "internalType": "uint256",
          "name": "",
          "type": "uint256"
        }
      ],
      "stateMutability": "view",
      "type": "function",
      "constant": true
    },
    {
      "inputs": [],
      "name": "starcoin",
      "outputs": [
        {
          "internalType": "contract StarCoin",
          "name": "",
          "type": "address"
        }
      ],
      "stateMutability": "view",
      "type": "function",
      "constant": true
    },
    {
      "inputs": [],
      "name": "buy",
      "outputs": [],
      "stateMutability": "payable",
      "type": "function",
      "payable": true
    },
    {
      "inputs": [
        {
          "internalType": "uint256",
          "name": "_amount",
          "type": "uint256"
        }
      ],
      "name": "sell",
      "outputs": [],
      "stateMutability": "nonpayable",
      "type": "function"
    }
  ],
  "bytecode": "0x6080604052606460015534801561001557600080fd5b5060405161049038038061049083398101604081905261003491610059565b600080546001600160a01b0319166001600160a01b0392909216919091179055610089565b60006020828403121561006b57600080fd5b81516001600160a01b038116811461008257600080fd5b9392505050565b6103f8806100986000396000f3fe60806040526004361061003f5760003560e01c80632c4e722e14610044578063a6f2ae3a1461006d578063e4849b3214610077578063ff91dbe614610097575b600080fd5b34801561005057600080fd5b5061005a60015481565b6040519081526020015b60405180910390f35b6100756100cf565b005b34801561008357600080fd5b50610075610092366004610318565b6101d4565b3480156100a357600080fd5b506000546100b7906001600160a01b031681565b6040516001600160a01b039091168152602001610064565b6000600154346100df9190610331565b6000546040516370a0823160e01b815230600482015291925082916001600160a01b03909116906370a0823190602401602060405180830381865afa15801561012c573d6000803e3d6000fd5b505050506040513d601f19601f82011682018060405250810190610150919061035e565b101561015b57600080fd5b60005460405163a9059cbb60e01b8152336004820152602481018390526001600160a01b039091169063a9059cbb906044016020604051808303816000875af11580156101ac573d6000803e3d6000fd5b505050506040513d601f19601f820116820180604052508101906101d09190610377565b5050565b6000546040516370a0823160e01b815233600482015282916001600160a01b0316906370a0823190602401602060405180830381865afa15801561021c573d6000803e3d6000fd5b505050506040513d601f19601f82011682018060405250810190610240919061035e565b101561024b57600080fd5b60006001548261025b91906103a0565b90508047101561026a57600080fd5b6000546040516323b872dd60e01b8152336004820152306024820152604481018490526001600160a01b03909116906323b872dd906064016020604051808303816000875af11580156102c1573d6000803e3d6000fd5b505050506040513d601f19601f820116820180604052508101906102e59190610377565b50604051339082156108fc029083906000818181858888f19350505050158015610313573d6000803e3d6000fd5b505050565b60006020828403121561032a57600080fd5b5035919050565b600081600019048311821515161561035957634e487b7160e01b600052601160045260246000fd5b500290565b60006020828403121561037057600080fd5b5051919050565b60006020828403121561038957600080fd5b8151801515811461039957600080fd5b9392505050565b6000826103bd57634e487b7160e01b600052601260045260246000fd5b50049056fea2646970667358221220855849147711ec390165bebdabcea75204d2a5a44e82d86d9366aec90a630b6564736f6c634300080a0033",
  "immutableReferences": {},
  "source": "// SPDX-License-Identifier: GPL-3.0\r\n\r\npragma solidity >=0.7.0 <0.9.0;\r\n\r\nimport './StarCoin.sol';\r\n\r\ncontract Exchange {\r\n    StarCoin public starcoin;\r\n    uint public rate = 100;\r\n\r\n    constructor(StarCoin _starcoin) public{\r\n        starcoin = _starcoin;\r\n    }\r\n\r\n    function buy() public payable{\r\n        uint amount = msg.value * rate;\r\n        require(starcoin.balanceOf( address(this) ) >= amount);\r\n        starcoin.transfer(msg.sender, amount);\r\n    }\r\n\r\n    function sell(uint _amount) public {\r\n        require(starcoin.balanceOf(msg.sender) >= _amount);\r\n\r\n        uint EthAmount = _amount / rate;\r\n        require(address(this).balance >= EthAmount);\r\n        starcoin.transferFrom(msg.sender, address(this), _amount);\r\n        payable(msg.sender).transfer(EthAmount);\r\n    }\r\n}",
  "sourcePath": "C:\\Users\\Marco\\Documents\\blockchain\\Testing\\starcoin\\starcoin6\\contracts\\Exchange.sol",
  "compiler": {
    "name": "solc",
    "version": "0.8.10+commit.fc410830.Emscripten.clang"
  },
  "schemaVersion": "3.4.3",
  "updatedAt": "2022-02-27T23:06:13.942Z",
  "networkType": "ethereum",
  "devdoc": {
    "kind": "dev",
    "methods": {},
    "version": 1
  },
  "userdoc": {
    "kind": "user",
    "methods": {},
    "version": 1
  }
}